{
  "contractName": "Document",
  "abi": [
    {
      "constant": false,
      "inputs": [
        {
          "internalType": "string",
          "name": "_imageHash",
          "type": "string"
        }
      ],
      "name": "setImage",
      "outputs": [],
      "payable": false,
      "stateMutability": "nonpayable",
      "type": "function"
    },
    {
      "constant": true,
      "inputs": [],
      "name": "getImage",
      "outputs": [
        {
          "internalType": "string",
          "name": "",
          "type": "string"
        }
      ],
      "payable": false,
      "stateMutability": "view",
      "type": "function"
    },
    {
      "constant": false,
      "inputs": [
        {
          "internalType": "string",
          "name": "_profile",
          "type": "string"
        }
      ],
      "name": "setProfile",
      "outputs": [],
      "payable": false,
      "stateMutability": "nonpayable",
      "type": "function"
    },
    {
      "constant": true,
      "inputs": [],
      "name": "getProfile",
      "outputs": [
        {
          "internalType": "string",
          "name": "",
          "type": "string"
        }
      ],
      "payable": false,
      "stateMutability": "view",
      "type": "function"
    },
    {
      "constant": false,
      "inputs": [
        {
          "internalType": "string",
          "name": "_documentHash",
          "type": "string"
        }
      ],
      "name": "setDocument",
      "outputs": [],
      "payable": false,
      "stateMutability": "nonpayable",
      "type": "function"
    },
    {
      "constant": true,
      "inputs": [],
      "name": "getDocument",
      "outputs": [
        {
          "internalType": "string",
          "name": "",
          "type": "string"
        }
      ],
      "payable": false,
      "stateMutability": "view",
      "type": "function"
    }
  ],
  "bytecode": "0x608060405234801561001057600080fd5b5061072f806100206000396000f3fe608060405234801561001057600080fd5b50600436106100625760003560e01c8063235b37b114610067578063537c07861461012257806371adb5e6146101dd578063b6f3f14d14610298578063d6afc9b11461031b578063f3651cbb1461039e575b600080fd5b6101206004803603602081101561007d57600080fd5b810190808035906020019064010000000081111561009a57600080fd5b8201836020820111156100ac57600080fd5b803590602001918460018302840111640100000000831117156100ce57600080fd5b91908080601f016020809104026020016040519081016040528093929190818152602001838380828437600081840152601f19601f820116905080830192505050505050509192919290505050610421565b005b6101db6004803603602081101561013857600080fd5b810190808035906020019064010000000081111561015557600080fd5b82018360208201111561016757600080fd5b8035906020019184600183028401116401000000008311171561018957600080fd5b91908080601f016020809104026020016040519081016040528093929190818152602001838380828437600081840152601f19601f82011690508083019250505050505050919291929050505061043b565b005b610296600480360360208110156101f357600080fd5b810190808035906020019064010000000081111561021057600080fd5b82018360208201111561022257600080fd5b8035906020019184600183028401116401000000008311171561024457600080fd5b91908080601f016020809104026020016040519081016040528093929190818152602001838380828437600081840152601f19601f820116905080830192505050505050509192919290505050610455565b005b6102a061046f565b6040518080602001828103825283818151815260200191508051906020019080838360005b838110156102e05780820151818401526020810190506102c5565b50505050905090810190601f16801561030d5780820380516001836020036101000a031916815260200191505b509250505060405180910390f35b610323610511565b6040518080602001828103825283818151815260200191508051906020019080838360005b83811015610363578082015181840152602081019050610348565b50505050905090810190601f1680156103905780820380516001836020036101000a031916815260200191505b509250505060405180910390f35b6103a66105b3565b6040518080602001828103825283818151815260200191508051906020019080838360005b838110156103e65780820151818401526020810190506103cb565b50505050905090810190601f1680156104135780820380516001836020036101000a031916815260200191505b509250505060405180910390f35b8060029080519060200190610437929190610655565b5050565b8060009080519060200190610451929190610655565b5050565b806001908051906020019061046b929190610655565b5050565b606060008054600181600116156101000203166002900480601f0160208091040260200160405190810160405280929190818152602001828054600181600116156101000203166002900480156105075780601f106104dc57610100808354040283529160200191610507565b820191906000526020600020905b8154815290600101906020018083116104ea57829003601f168201915b5050505050905090565b606060028054600181600116156101000203166002900480601f0160208091040260200160405190810160405280929190818152602001828054600181600116156101000203166002900480156105a95780601f1061057e576101008083540402835291602001916105a9565b820191906000526020600020905b81548152906001019060200180831161058c57829003601f168201915b5050505050905090565b606060018054600181600116156101000203166002900480601f01602080910402602001604051908101604052809291908181526020018280546001816001161561010002031660029004801561064b5780601f106106205761010080835404028352916020019161064b565b820191906000526020600020905b81548152906001019060200180831161062e57829003601f168201915b5050505050905090565b828054600181600116156101000203166002900490600052602060002090601f016020900481019282601f1061069657805160ff19168380011785556106c4565b828001600101855582156106c4579182015b828111156106c35782518255916020019190600101906106a8565b5b5090506106d191906106d5565b5090565b6106f791905b808211156106f35760008160009055506001016106db565b5090565b9056fea265627a7a723158207682edad2b312376d57f9fcbae0e43758379ca337f56a4c2043c46324b1f5fc164736f6c63430005100032",
  "source": "// SPDX-License-Identifier: GPL-3.0\npragma solidity >=0.4.16 <0.8.0;\n\ncontract Document {\n  string documentHash;\n  string imageHash;\n  string profile;\n\n  function setImage(string memory _imageHash) public {\n    imageHash = _imageHash;\n  }\n\n  function getImage() public view returns (string memory) {\n    return imageHash;\n  }\n\n  function setProfile(string memory _profile) public {\n    profile = _profile;\n  }\n\n  function getProfile() view public returns (string memory){\n    return profile;\n  }\n\n  function setDocument( string memory _documentHash) public{\n    documentHash = _documentHash;\n  }\n\n  function getDocument() view public returns (string memory){\n    return documentHash;\n  }\n\n}\n",
  "sourcePath": "/home/onealla/Documents/code/UGProfile/client/src/contracts/Document.sol",
  "compiler": {
    "name": "solc",
    "version": "0.5.16+commit.9c3226ce.Emscripten.clang"
  },
  "schemaVersion": "3.3.2",
  "updatedAt": "2020-12-22T09:00:11.902Z",
  "networkType": "ethereum",
  "devdoc": {
    "methods": {}
  },
  "userdoc": {
    "methods": {}
  }
}